:1000000057EF13F00000000000EF00F000000000C8
:0A0010000000000000000000F3D71C
:0E001C00ACB202D00000FCD7C0C0ADFF120095
:0C002A0072B201D0FDD7C0C073FF1200FD
:10003600C0C06FFF6DB002D00000FCD76FCF00F0DC
:020046001200A6
:10004800C0C0C9FFC7B002D00000FCD7C9CF00F0BC
:02005800120094
:10005A00F250026EF29E0500FF6A0150FE6E0050D9
:08006A00FD6E02BEF28E1200D1
:10007200A49EBAC06FFF51C0BBF052C0BCF053C0C7
:10008200BDF054C0BEF06DA421D051505210531097
:1000920054101BE00001BB51BC11BD11BE110EE199
:1000A20099C0E1FF9AC0E2FF040EE66E97C000F02D
:1000B20098C001F0D1DF010E006E3AD0010E0001AE
:1000C200BB5F000EBC5BBD5BBE5BDDD751C0BBF04E
:1000D20052C0BCF053C0BDF054C0BEF0A4BE21D08B
:1000E20051505210531054101BE00001BB51BC116F
:1000F200BD11BE110EE199C0E1FF9AC0E2FF040EEC
:10010200E66E97C000F098C001F0A6DF010E006E07
:100112000FD0010E0001BB5F000EBC5BBD5BBE5B7E
:10012200DDD76BBC02D0006A03D06B84020E006E76
:020132001200B9
:10013400BAC0C9FFC7B002D00000FCD7C9CF00F0D5
:020144001200A7
:1001460051C0BCF052C0BDF053C0BEF054C0BFF0A9
:10015600A49E6B86A4BE1FD051505210531054104B
:1001660019E00001BC51BD11BE11BF110CE199C0CF
:10017600E1FF9AC0E2FF030EE66E97C000F098C05A
:1001860001F068DF08D0010E0001BC5F000EBD5B08
:10019600BE5BBF5BDFD700016FCFBBF0BA51000A71
:1001A60002E16B8A01D06B9AA49E6B8851C0BCF0A9
:1001B60052C0BDF053C0BEF054C0BFF0A4BE1FD0A5
:1001C600515052105310541019E00001BC51BD118A
:1001D600BE11BF110CE199C0E1FF9AC0E2FF030E08
:1001E600E66E97C000F098C001F034DF08D0010E2B
:1001F6000001BC5F000EBD5BBE5BBF5BDFD7BBC053
:0402060000F01200F2
:10020A0035C0BCF036C0BDF037C0BEF038C0BFF054
:10021A009E96C5869EB61FD03550361037103810B8
:10022A0019E00001BC51BD11BE11BF110CE193C010
:10023A00E1FF94C0E2FF030EE66E91C000F092C0A7
:10024A0001F006DF08D0010E0001BC5F000EBD5BA5
:10025A00BE5BBF5BDFD70001C9CFBBF0BA51000A52
:10026A0002E1C58A01D0C59A9E96C58835C0BCF000
:10027A0036C0BDF037C0BEF038C0BFF09EB61FD042
:10028A00355036103710381019E00001BC51BD1135
:10029A00BE11BF110CE193C0E1FF94C0E2FF030E4F
:1002AA00E66E91C000F092C001F0D2DE08D0010ED5
:1002BA000001BC5F000EBD5BBE5BBF5BDFD7BBC08E
:0402CA0000F012002E
:1002CE009E96BAC0C9FF35C0BBF036C0BCF037C071
:1002DE00BDF038C0BEF0C7A421D03550361037104F
:1002EE0038101BE00001BB51BC11BD11BE110EE157
:1002FE0093C0E1FF94C0E2FF040EE66E91C000F0E1
:10030E0092C001F0A3DE010E006E3AD0010E000184
:10031E00BB5F000EBC5BBD5BBE5BDDD735C0BBF00B
:10032E0036C0BCF037C0BDF038C0BEF09EB621D08E
:10033E0035503610371038101BE00001BB51BC1180
:10034E00BD11BE110EE193C0E1FF94C0E2FF040E99
:10035E00E66E91C000F092C001F078DE010E006EE4
:10036E000FD0010E0001BB5F000EBC5BBD5BBE5B20
:10037E00DDD7C5BC02D0006A03D0C584020E006E64
:02038E0012005B
:10039000BAC06FFF6DB002D00000FCD76FCF00F085
:0203A000120049
:0A03A200210E0D6E0D2EFED7120085
:0603AC0000000000120039
:1003B2000F0E0C6E470E0D6E0D2EFED70C2EFCD7B7
:0603C20000000000120023
:1003C8000001B351390806E3300EB35D03E3010EB3
:0803D800006E01D0006A120062
:1003E00028D000018E87010EB327000EB423B52359
:1003F0005DD000018E81010EB327000EB423B5231A
:1004000055D000018E83010EB327000EB423B5230F
:100410004DD000018F87010EB327000EB423B52302
:1004200045D000018E85010EB327000EB423B523FD
:100430003DD0B3C0F6FFB4C0F7FFB5C0F8FF090068
:10044000F5CF01F001502D0ACCE0B3C0F6FFB4C0E7
:10045000F7FFB5C0F8FF0900F5CF01F00150200A01
:10046000C8E0B3C0F6FFB4C0F7FFB5C0F8FF09009D
:10047000F5CF01F001502B0AC4E0B3C0F6FFB4C0C1
:10048000F7FFB5C0F8FF0900F5CF01F00150230ACE
:10049000C0E0B3C0F6FFB4C0F7FFB5C0F8FF090075
:1004A000F5CF01F00150300ABCE001D099D700012E
:1004B0008EA301D08E918EA701D08E95B3C000F08F
:0A04C000B4C001F0B5C002F0120054
:1004CA000001B8A750D0B4C0B9F0B933B99FB93355
:1004DA00B99FB933B99F050E016EB5C000F001503E
:1004EA0004E000360090FF0FFBD70050B91382904A
:1004FA0057C0E1FF58C0E2FF020EE66E55C000F099
:10050A0056C001F0A5DD57C0E1FF58C0E2FFB3C0F5
:10051A00E6FF55C000F056C001F09ADD57C0E1FF72
:10052A0058C0E2FFB9C0E6FF55C000F056C001F05E
:10053A008FDD050E016EB4C000F0015004E00036F4
:10054A000090FF0FFBD700C0B9F057C0E1FF58C0B9
:10055A00E2FF00C0E6FF55C000F056C001F078DDAA
:10056A0082801FDF78D0050E006EB6C0B9F0005049
:10057A0005E00001B933B99FFF0FFAD70001B7C0F0
:10058A0000F00036009000360090003600900050CF
:10059A00B913829057C0E1FF58C0E2FF020EE66E1F
:1005AA0055C000F056C001F053DD57C0E1FF58C0F6
:1005BA00E2FFB3C0E6FF55C000F056C001F048DDC7
:1005CA0057C0E1FF58C0E2FFB9C0E6FF55C000F0CE
:1005DA0056C001F03DDDB6C000F00036009000368E
:1005EA00009000360090E00E001600C0B9F0080E28
:1005FA000010016E01C0B9F0030E0001B615006EBD
:10060A000150001200C0B9F057C0E1FF58C0E2FF24
:10061A0000C0E6FF55C000F056C001F019DDB5C0B4
:10062A00B9F057C0E1FF58C0E2FFB5C0E6FF55C0B8
:10063A0000F056C001F00CDDB4C0B9F057C0E1FFBC
:10064A0058C0E2FFB4C0E6FF55C000F056C001F042
:08065A00FFDC8280A6DE120025
:100662000B6A0A6A096A00500402F4CF09F0F3CF58
:1006720008F001500502F4CF0BF0F3CF0AF000505E
:100682000502F3500926F4500A22E86A0B220150AF
:100692000402F3500926F4500A22E86A0B2208C029
:1006A20000F009C001F00AC002F00BC003F0120012
:1006B2000001B3BF02D0819601D08186B3BD02D0C2
:1006C200819401D08184B3BB02D0819201D0818216
:1006D200B3B902D0819001D0818080B702D08188E5
:1006E20001D08198818A61DE819AB3B702D0819666
:1006F20001D08186B3B502D0819401D08184B3B395
:1007020002D0819201D08182B3B102D0819001D016
:10071200818080B702D0818801D08198818A45DEAC
:0E072200819A80A702D044DE01D03ADE120098
:10073000086A096A100E0C6E013408360936045036
:10074000085E0550D8A0053C095ED8B007D004501B
:1007500008260550D8B0053C0926D8900036013649
:060760000C2EEAD7120086
:1007660000018EA55DD08EA312D08EA103D02D0ED2
:10077600036E02D02B0E036EB3C0E1FFB4C0E2FFDE
:1007860003C0E6FFB34BB42B884B892B34D08EA124
:100796000BD0B3C0E1FFB4C0E2FF200EE66EB34B50
:1007A600B42B884B892B27D0C00E8E15016E8F5126
:1007B600080B026E0250080A02E1800E01181BE1C6
:1007C600B3C0E1FFB4C0E2FF300EE66EB34BB42B0C
:1007D600884B892B8EAB03D0580E046E02D0780E50
:1007E600046EB3C0E1FFB4C0E2FF04C0E6FFB34B42
:1007F600B42B884B892B8C518D1111E0B3C0E1FFCE
:10080600B4C0E2FF300EE66EB34BB42B884B892B97
:10081600010E8C5F000E8D5B8C518D11EFE174D053
:100826008C518D1113E08EB711D0B3C0E1FFB4C067
:10083600E2FF200EE66EB34BB42B884B892B010EDC
:100846008C5F000E8D5B8C518D11EFE18EA312D063
:100856008EA103D02D0E056E02D02B0E056EB3C0F1
:10086600E1FFB4C0E2FF05C0E6FFB34BB42B884BF3
:10087600892B0CD08EA10AD0B3C0E1FFB4C0E2FF31
:10088600200EE66EB34BB42B884B892BC00E8E150B
:10089600016E8F51080B026E0250080A02E1400EEB
:1008A60001180BE1B3C0E1FFB4C0E2FF300EE66E03
:1008B600B34BB42B884B892B27D0C00E8E15016EF7
:1008C6008F51080B026E0250080A02E1800E0118D1
:1008D6001BE1B3C0E1FFB4C0E2FF300EE66EB34BDE
:1008E600B42B884B892B8EAB03D0580E066E02D0E4
:1008F600780E066EB3C0E1FFB4C0E2FF06C0E6FFA5
:10090600B34BB42B884B892B800E006E800E8B194F
:10091600005C02E18A51905D0BE2B3C0E1FFB4C016
:10092600E2FF300EE66EB34BB42B884B892BECD727
:0A093600B3C000F0B4C001F01200DD
:100940000001A8A76FD0829057C0E1FF58C0E2FF16
:10095000030EE66E55C000F056C001F02DEC00F01D
:1009600057C0E1FF58C0E2FFA7C0E6FF55C000F046
:1009700056C001F02DEC00F057C0E1FF58C0E2FF77
:10098000E66A55C000F056C001F02DEC00F000C042
:10099000AAF0050E016E00C0ABF0000E0001AC6FB6
:1009A000AD6FAE6F015004E0AB33AB9FFF0FFBD7D1
:1009B000000EAC6FAD6FAE6FADC0AEF0ACC0ADF0C1
:1009C000ABC0ACF0AB6B00C001F00136019001365A
:1009D0000190013601900150AB13000EAC13AD1322
:1009E000AE1357C0E1FF58C0E2FFE66A55C000F001
:1009F00056C001F02DEC00F000C0AAF08280D6DCD9
:100A0000050E016EAAC000F0015004E00032009E05
:100A1000FF0FFBD700500001AB13000EAC13AD135A
:100A2000AE13B2D0AB6BAC6BAD6BAE6B829057C0FC
:100A3000E1FF58C0E2FF030EE66E55C000F056C05D
:100A400001F02DEC00F057C0E1FF58C0E2FFA7C055
:100A5000E6FF55C000F056C001F02DEC00F057C085
:100A6000E1FF58C0E2FFE66A55C000F056C001F051
:100A70002DEC00F000C0AAF0050E016E00C0A9F038
:100A8000015005E00001A937A991FF0FFAD7000135
:100A9000030E016E00C0ABF0000EAC6FAD6FAE6F19
:100AA000015004E0AB33AB9FFF0FFBD7000EAC6FE0
:100AB000AD6FAE6FADC0AEF0ACC0ADF0ABC0ACF0E2
:100AC000AB6B57C0E1FF58C0E2FFE66A55C000F0CB
:100AD00056C001F02DEC00F000C0AAF0030E001487
:100AE000016E0001A9510110036E03C0A9F0E00ED0
:100AF0000014026E02C000F00032009E0032009E20
:100B00000032009E0350001200C0A9F00050AB1349
:100B1000000EAC13AD13AE13ADC0AEF0ACC0ADF073
:100B2000ABC0ACF0AB6B57C0E1FF58C0E2FFE66A68
:100B300055C000F056C001F02DEC00F000C0AAF046
:100B400000500001AB13000EAC13AD13AE13ADC0DB
:100B5000AEF0ACC0ADF0ABC0ACF0AB6B57C0E1FFDA
:100B600058C0E2FFE66A55C000F056C001F02DEC17
:100B700000F000C0AAF0828019DC0001AA51AB137A
:100B8000000EAC13AD13AE13ABC000F0ACC001F05F
:0A0B9000ADC002F0AEC003F0120089
:0E0B9A0000018097A7C0B3F087DD80871200AE
:0C0BA800060E0D6E0D2EFED70000120090
:100BB400829057C0E1FF58C0E2FF020EE66E55C0B6
:100BC40000F056C001F02DEC00F057C0E1FF58C012
:100BD400E2FFFF0EE66E55C000F056C001F02DECAA
:100BE40000F057C0E1FF58C0E2FFA7C0E6FF55C0C0
:100BF40000F056C001F02DEC00F08280D6EC01F03C
:100C04000001A85330E0829057C0E1FF58C0E2FFD2
:100C1400030EE66E55C000F056C001F02DEC00F056
:100C240057C0E1FF58C0E2FFFE0EE66E55C000F06B
:100C340056C001F02DEC00F057C0E1FF58C0E2FFB0
:100C4400E66A55C000F056C001F02DEC00F000C07B
:100C5400A9F08280D6EC01F0E00E0001A915016E26
:080C64000150A719D0E11200B4
:0C0C6C000E0E0D6E0D2EFED700001200C3
:100C78000001886B896B8E6B8F6BA9C000F0AAC0CE
:100C880001F0ABC002F0010EA927000EAA23AB2386
:100C980000C0F6FF01C0F7FF02C0F8FF0900F5CF5A
:100CA80000F000C090F00052D8B430EF0BF0905133
:100CB800250A0BE0A7C0E1FFA8C0E2FF90C0E6FF4D
:100CC800A74BA82B884B892BD8D78C6B8D6B8E6B39
:100CD8008F6BA9C0B3F0AAC0B4F0ABC0B5F0F0EC0C
:100CE80001F000C0A9F001C0AAF002C0ABF000C03A
:100CF800F6FF01C0F7FF02C0F8FF0900F5CF00F0CA
:100D0800000E016E00C0B3F0E4EC01F0005235E0D3
:100D18008C6B8D6B8CC000F08DC001F00A0E046ED8
:100D2800000E056E9ADCA9C0F6FFAAC0F7FFABC09B
:100D3800F8FF0900F5CF02F0025000248C6F000E76
:100D480001208D6F300E8C5F000E8D5B010EA92780
:100D5800000EAA23AB23A9C0F6FFAAC0F7FFABC0B9
:100D6800F8FF0900F5CF00F0000E016E00C0B3F0E7
:100D7800E4EC01F00052CEE133D0A9C0F6FFAAC0DE
:100D8800F7FFABC0F8FF0900F5CF01F001502A0AC0
:100D980027E1ACC0E9FFADC0EAFFEECF00F0EECF2F
:100DA80001F000C0E9FF01C0EAFFEECF8CF0EECF02
:100DB8008DF0ACC0E9FFADC0EAFF020EEE24006E74
:100DC800000EEE20016EACC0E1FFADC0E2FF00C036
:100DD800E6FF01C0E6FF010EA927000EAA23AB23F8
:100DE800A9C0F6FFAAC0F7FFABC0F8FF0900F5CF0E
:100DF80001F001502E0A70E1010EA927000EAA2366
:100E0800AB23A9C0F6FFAAC0F7FFABC0F8FF0900E3
:100E1800F5CF01F001502A0A28E1ACC0E9FFADC0C6
:100E2800EAFFEECF00F0EECF01F000C0E9FF01C00D
:100E3800EAFFEECF8AF0EECF8BF0ACC0E9FFADC091
:100E4800EAFF020EEE24006E000EEE20016EACC02A
:100E5800E1FFADC0E2FF00C0E6FF01C0E6FF010E02
:100E6800A927000EAA23AB2336D08A6B8B6BA9C0A7
:100E7800F6FFAAC0F7FFABC0F8FF0900F5CF00F0F6
:100E8800000E016E00C0B3F0E4EC01F0005223E064
:100E98008AC000F08BC001F00A0E046E000E056EC9
:100EA80031EC03F0A9C0F6FFAAC0F7FFABC0F8FF0A
:100EB8000900F5CF02F0025000248A6F000E0120CD
:100EC8008B6F300E8A5F000E8B5B010EA927000E18
:100ED800AA23AB23CCD702D08A6B8B6BA9C000F0B6
:100EE800AAC001F0ABC002F0010EA927000EAA2388
:100EF800AB2300C0F6FF01C0F7FF02C0F8FF0900EE
:100F0800F5CF90F0EFD088C000F089C001F0A8D3E9
:100F18008E8D17D116D18E8B8E8F13D1ACC0E9FF71
:100F2800ADC0EAFFEECF00F0EECF01F000C0E9FF60
:100F380001C0EAFFEECFAEF0EECFAFF0ACC0E9FFF4
:100F4800ADC0EAFF020EEE24006E000EEE20016E28
:100F5800ACC0E1FFADC0E2FF00C0E6FF01C0E6FFA4
:100F6800000EAF1902E1000EAE1904E1300EAE6FAB
:100F7800000EAF6FB06BB16BB051AE25E96EB151D9
:100F8800AF21EA6EEE520BE0010EB025006E000EA6
:100F9800B121016E00C0B0F001C0B1F0EDD78A51A7
:100FA8008B110AE0B1518B5D02E1B0518A5D04E218
:100FB8008AC0B0F08BC0B1F08D51B15D02E18C51A7
:100FC800B05D05E2B0518C5FB1518D5B02D08C6B86
:100FD8008D6B8EB716D08CC000F08DC001F0010E5D
:100FE8008C5F000E8D5B005001100BE0A7C0E1FF85
:100FF800A8C0E2FF200EE66EA74BA82B884B892BD2
:10100800EAD7B0C002F0B1C003F0010EB05D006EC7
:10101800000EB159016E00C0B0F001C0B1F002502D
:10102800031019E0AEC0E9FFAFC0EAFFA7C0E1FFB7
:10103800A8C0E2FFEECFE6FFA74BA82B010EAE2516
:10104800006E000EAF21016E00C0AEF001C0AFF01F
:10105800884B892BD6D78EA716D08CC000F08DC0B0
:1010680001F0010E8C5F000E8D5B005001100BE04B
:10107800A7C0E1FFA8C0E2FF200EE66EA74BA82B91
:10108800884B892BEAD7F9D5ACC0E9FFADC0EAFF98
:10109800EECF00F0EECF01F000C0E9FF01C0EAFF9B
:1010A800EECF90F0ACC0E9FFADC0EAFF020EEE242F
:1010B800006E000EEE20016EACC0E1FFADC0E2FF95
:1010C80000C0E6FF01C0E6FF900EAE6F000EAF6FE6
:1010D800010EB06F000EB16F62D7C00E8E13000EF6
:1010E8008F132FD09051000AD8B40DD790516C0AA5
:1010F800D8B40ED790514C0AD8B40AD790516F0A79
:10110800D8B406D79051640AD8B404D79051690A64
:10111800D8B400D79051700AD8B4FDD69051580A67
:10112800D8B4F9D69051780AD8B4F6D69051730A43
:10113800D8B4F4D69051630AA7E09051750ACDE06F
:10114800C3D7C00E8E15016E8FC002F0000E0216B6
:10115800000E021802E1000E01183BE1ACC0E9FFE5
:10116800ADC0EAFFEECF00F0EECF01F000C0E9FF1E
:1011780001C0EAFFEECFAEF0EECFAFF0ACC0E9FFB2
:10118800ADC0EAFF020EEE24006E000EEE20016EE6
:10119800ACC0E1FFADC0E2FF00C0E6FF01C0E6FF62
:1011A800800EAF19006E800E005C02E1000EAE5D8D
:1011B8000FE2030E8E13000E8F13AE510008006E5F
:1011C800AFC001F0000E015600C0AEF001C0AFF094
:1011D80022D0ACC0E9FFADC0EAFFEECF00F0EECF01
:1011E80001F000C0E9FF01C0EAFFEECFAEF0EECF9C
:1011F800AFF0ACC0E9FFADC0EAFF020EEE24006E0E
:10120800000EEE20016EACC0E1FFADC0E2FF00C0F1
:10121800E6FF01C0E6FF000E8B1902E1000E8A19F5
:1012280008E1000EAF1902E1000EAE1902E18A4B87
:101238008B2BC00E8E15006E00C005F07BD0010E02
:10124800906F9051050A23E090C000F0000E016EE7
:10125800026E036E00360090013602360336040E25
:101268000024F66E2B0E0120F76E000E0220F86E99
:101278000900F5CF01F00900F5CF02F00250AF5D8B
:1012880002E10150AE5D01E202D0902BDAD75FD0C7
:10129800010E906F9051040A23E090C000F0000EF8
:1012A800016E026E036E0036009001360236033678
:1012B8000E0E0024F66E2B0E0120F76E000E022093
:1012C800F86E0900F5CF01F00900F5CF02F00250E1
:1012D800AF5D02E10150AE5D01E202D0902BDAD79A
:1012E80036D0010E906F9051060A23E090C000F0AE
:1012F800000E016E026E036E003600900136023653
:101308000336F80E0024F66E2A0E0120F76E000E42
:101318000220F86E0900F5CF01F00900F5CF02F0C0
:101328000250AF5D02E10150AE5D01E202D0902BA8
:10133800DAD70DD00550000A82E00550C00AD8B4AB
:101348007ED70550800AA4E00550400ACAE0800E06
:10135800006E800E8B19005C02E18A51905D03E2F9
:101368008AC090F00DD0800E8B19006E800E005C44
:1013780002E190518A5D04E290C08AF0000E8B6F02
:101388008C518D110EE0030E8E15006E8FC001F08A
:10139800000E01160050011004E0010E8C5F000ED3
:1013A8008D5B800E8B19006E800E8D19005C02E13A
:1013B8008C518A5D05E28A518C5F8B518D5B02D01E
:1013C8008C6B8D6BC40E8E15016E8F51080B026EDF
:1013D8000250080A02E1400E011808E18C518D11F3
:1013E80004E0010E8C5F000E8D5B1CD0C00E8E15C4
:1013F800016E8F51080B026E0250080A02E1800E3E
:10140800011810E1800E006E800E8D19005C02E15B
:101418008C51020805E2020E8C5F000E8D5B02D033
:101428008C6B8D6BA7C0B3F0A8C0B4F0B3EC03F01D
:1014380000C0A7F001C0A8F08AC000F08BC001F07E
:10144800010E8A5F000E8B5B00500110D8B4E6D005
:10145800C00E8E15006E00C0B2F0C6D08AC000F073
:101468008BC001F0000E8BBFFF0E026E036E0036BC
:101478000090013602360336040E0024F66E2B0E59
:101488000120F76E000E0220F86E0900F5CF04F077
:101498000900F5CF05F0AEC000F0AFC001F098EC40
:1014A80003F00A0E046E000E056E98EC03F008C0F7
:1014B80000F009C001F0300E0024906FA4D08EAB6C
:1014C80035D08AC000F08BC001F0000E8BBFFF0E34
:1014D800026E036E003600900136023603360E0E99
:1014E8000024F66E2B0E0120F76E000E0220F86E17
:1014F8000900F5CF04F00900F5CF05F0AEC000F003
:10150800AFC001F098EC03F00F0E0016000E0116A4
:10151800D60E0024F66E2A0E0120F76E000EF86E25
:10152800000EF8220900F5CF90F034D08AC000F000
:101538008BC001F0000E8BBFFF0E026E036E0036EB
:1015480000900136023603360E0E0024F66E2B0E7E
:101558000120F76E000E0220F86E0900F5CF04F0A6
:101568000900F5CF05F0AEC000F0AFC001F098EC6F
:1015780003F00F0E0016000E0116E70E0024F66E9B
:101588002A0E0120F76E000EF86E000EF8220900F0
:10159800F5CF90F038D08AC000F08BC001F0000E73
:1015A8008BBFFF0E026E036E0036009001360236C6
:1015B8000336F80E0024F66E2A0E0120F76E000E90
:1015C8000220F86E0900F5CF04F00900F5CF05F008
:1015D800AEC000F0AFC001F098EC03F0070E0014A5
:1015E800906F300E90270FD0B251000AD8B436D77A
:1015F800B251C00AD8B432D7B251800AD8B45FD732
:10160800B251400AC8E0A7C0E1FFA8C0E2FF90C0FD
:10161800E6FFA74BA82B884B892B0ED78EA71AD08D
:10162800800E006E800E8D19005C02E18C5100085E
:1016380011E2A7C0E1FFA8C0E2FF200EE66EA74BAB
:10164800A82B884B892B010E8C5F000E8D5B8C516B
:101658008D11EFE141EF06F088C000F089C001F07C
:0216680012006E
:10166A0012D00001AD6B20D0040EAD6F1DD0080E54
:10167A00AD6F1AD0100EAD6F17D0140EAD6F14D017
:10168A00180EAD6F11D00001A751000AEAE0A75168
:10169A00010AEAE0A751020AEAE0A751030AEAE0CE
:1016AA00A751040AEAE0ECD7ADC0B3F0A8C0B4F081
:1016BA00A9C0B5F0AAC0B6F0ABC0B7F0ACC0B8F0DC
:0616CA0065EC02F01200C5
:1016D000020E0C6E490E0D6E0D2EFED70C2EFCD791
:0616E000000000001200F2
:1016E6000001A751000A0FE1200EB36FA8C0B4F0A5
:1016F600A9C0B5F0AAC0B6F0ABC0B7F0ACC0B8F0A0
:1017060065EC02F00FD0240E0001B36FA8C0B4F050
:10171600A9C0B5F0AAC0B6F0ABC0B7F0ACC0B8F07F
:0617260065EC02F0120068
:10172C000001A707A807A907AA07AB07060E006EBA
:10173C00A7C0ADF0005004E0AD37AD91FF0FFBD763
:10174C00A851AD13829057C0E1FF58C0E2FF020EC2
:10175C00E66E55C000F056C001F02DEC00F057C0FD
:10176C00E1FF58C0E2FF2A0EE66E55C000F056C0ED
:10177C0001F02DEC00F057C0E1FF58C0E2FFADC006
:10178C00E6FF55C000F056C001F02DEC00F0828051
:10179C00D6EC01F0A9C0ADF00001AD37AD91AD377D
:1017AC00AD91AD37AD91AB51AD13ACB501D0AD8DA5
:1017BC00ACA101D0AD8F829057C0E1FF58C0E2FFC1
:1017CC00020EE66E55C000F056C001F02DEC00F094
:1017DC0057C0E1FF58C0E2FF290EE66E55C000F07D
:1017EC0056C001F02DEC00F057C0E1FF58C0E2FFED
:1017FC00ADC0E6FF55C000F056C001F02DEC00F076
:10180C008280D6EC01F0AAC0ADF00001ACA301D0EF
:10181C00AD8D829057C0E1FF58C0E2FF020EE66E1C
:10182C0055C000F056C001F02DEC00F057C0E1FFA0
:10183C0058C0E2FF280EE66E55C000F056C001F00D
:10184C002DEC00F057C0E1FF58C0E2FFADC0E6FF41
:10185C0055C000F056C001F02DEC00F08280D6ECA3
:04186C0001F0120075
:10187000A1C0E1FFA2C0E2FFE66A829057C0E1FF8B
:1018800058C0E2FF030EE66E55C000F056C001F0EE
:101890002DEC00F057C0E1FF58C0E2FF2C0EE66EC1
:1018A00055C000F056C001F02DEC00F057C0E1FF2C
:1018B00058C0E2FFE66A55C000F056C001F02DECBA
:1018C00000F000C0A3F08280D6EC01F00001A3A1DB
:1018D000E5D0FF0EA66F829057C0E1FF58C0E2FF2F
:1018E000050EE66E55C000F056C001F02DEC00F07C
:1018F00057C0E1FF58C0E2FF2C0EE66E55C000F065
:1019000056C001F02DEC00F057C0E1FF58C0E2FFD7
:10191000010EE66E55C000F056C001F02DEC00F04F
:1019200057C0E1FF58C0E2FFE66A55C000F056C05C
:1019300001F02DEC00F08280D6EC01F0D6EC01F045
:10194000829057C0E1FF58C0E2FF030EE66E55C01B
:1019500000F056C001F02DEC00F057C0E1FF58C078
:10196000E2FF2D0EE66E55C000F056C001F02DECE2
:1019700000F057C0E1FF58C0E2FFE66A55C000F032
:1019800056C001F02DEC00F000C0A3F08280D6EC30
:1019900001F00001A3AF3CD0A1C0E9FFA2C0EAFF63
:1019A000A1C0E1FFA2C0E2FFE686829057C0E1FF3E
:1019B00058C0E2FF050EE66E55C000F056C001F0BB
:1019C0002DEC00F057C0E1FF58C0E2FF2D0EE66E8F
:1019D00055C000F056C001F02DEC00F057C0E1FFFB
:1019E00058C0E2FF800EE66E55C000F056C001F010
:1019F0002DEC00F057C0E1FF58C0E2FFE66A55C089
:101A000000F056C001F02DEC00F08280D6EC01F021
:101A1000D6EC01F0829057C0E1FF58C0E2FF030E00
:101A2000E66E55C000F056C001F02DEC00F057C036
:101A3000E1FF58C0E2FF600EE66E55C000F056C0F0
:101A400001F02DEC00F057C0E1FF58C0E2FFE66A5C
:101A500055C000F056C001F02DEC00F000C0A3F01E
:101A60008280D6EC01F00001A3A517D0070EA315C4
:101A7000006EA1C0E9FFA2C0EAFFA1C0E1FFA2C0C1
:101A8000E2FF0050EE12A1C0E9FFA2C0EAFFA1C030
:101A9000E1FFA2C0E2FF010EEE161BD1A1C0E1FFE3
:101AA000A2C0E2FFE66A829057C0E1FF58C0E2FFA1
:101AB000030EE66E55C000F056C001F02DEC00F0AC
:101AC00057C0E1FF58C0E2FF2C0EE66E55C000F093
:101AD00056C001F02DEC00F057C0E1FF58C0E2FF06
:101AE000E66A55C000F056C001F02DEC00F000C0D1
:101AF000A3F08280D6EC01F00001A3A3E8D0A66B8E
:101B0000829057C0E1FF58C0E2FF050EE66E55C057
:101B100000F056C001F02DEC00F057C0E1FF58C0B6
:101B2000E2FF2C0EE66E55C000F056C001F02DEC21
:101B300000F057C0E1FF58C0E2FF020EE66E55C04C
:101B400000F056C001F02DEC00F057C0E1FF58C086
:101B5000E2FFE66A55C000F056C001F02DEC00F03F
:101B60008280D6EC01F0D6EC01F0829057C0E1FF04
:101B700058C0E2FF030EE66E55C000F056C001F0FB
:101B80002DEC00F057C0E1FF58C0E2FF2D0EE66ECD
:101B900055C000F056C001F02DEC00F057C0E1FF39
:101BA00058C0E2FFE66A55C000F056C001F02DECC7
:101BB00000F000C0A3F08280D6EC01F00001A3ADDC
:101BC0003CD0A1C0E9FFA2C0EAFFA1C0E1FFA2C0D2
:101BD000E2FFE686829057C0E1FF58C0E2FF050EA3
:101BE000E66E55C000F056C001F02DEC00F057C075
:101BF000E1FF58C0E2FF2D0EE66E55C000F056C062
:101C000001F02DEC00F057C0E1FF58C0E2FF400E9C
:101C1000E66E55C000F056C001F02DEC00F057C044
:101C2000E1FF58C0E2FFE66A55C000F056C001F07F
:101C30002DEC00F08280D6EC01F0D6EC01F0829021
:101C400057C0E1FF58C0E2FF030EE66E55C000F03A
:101C500056C001F02DEC00F057C0E1FF58C0E2FF84
:101C6000700EE66E55C000F056C001F02DEC00F08D
:101C700057C0E1FF58C0E2FFE66A55C000F056C009
:101C800001F02DEC00F000C0A3F08280D6EC01F052
:101C9000070E0001A315006EA1C0E9FFA2C0EAFF74
:101CA000A1C0E1FFA2C0E2FF0050EE12A1C0E9FF17
:101CB000A2C0EAFF020EEE5C09E2A1C0E9FFA2C0E9
:101CC000EAFFA1C0E1FFA2C0E2FFE68E02D0006AF7
:101CD00015D1829057C0E1FF58C0E2FF030EE66EB7
:101CE00055C000F056C001F02DEC00F00001A653E5
:101CF0001AE057C0E1FF58C0E2FF650EE66E55C01E
:101D000000F056C001F02DEC00F057C0E1FF58C0C4
:101D1000E2FFE66A55C000F056C001F02DEC00F07D
:101D200000C0A3F019D057C0E1FF58C0E2FF750E04
:101D3000E66E55C000F056C001F02DEC00F057C023
:101D4000E1FF58C0E2FFE66A55C000F056C001F05E
:101D50002DEC00F000C0A3F08280D6EC01F09FC013
:101D6000E1FFA0C0E2FFA3C0E6FF0001A3AD09D0E0
:101D7000A1C0E9FFA2C0EAFFA1C0E1FFA2C0E2FF4B
:101D8000E68C829057C0E1FF58C0E2FF030EE66E7A
:101D900055C000F056C001F02DEC00F00001A65334
:101DA0001DE057C0E1FF58C0E2FF620EE66E55C06D
:101DB00000F056C001F02DEC00F057C0E1FF58C014
:101DC000E2FFE66A55C000F056C001F02DEC00F0CD
:101DD00000C0A3F0610E0001A56F1CD057C0E1FF49
:101DE00058C0E2FF720EE66E55C000F056C001F01A
:101DF0002DEC00F057C0E1FF58C0E2FFE66A55C085
:101E000000F056C001F02DEC00F000C0A3F0710E00
:101E10000001A56F8280D6EC01F0A3A71CD0A1C061
:101E2000E9FFA2C0EAFFA1C0E1FFA2C0E2FFE68A8B
:101E3000A5C0A7F0F70EA86FA0EC04F09BC0E1FFCF
:101E40009CC0E2FF00C0E6FF01C0E6FF02C0E6FF63
:101E500003C0E6FF12D0A5C0A7F0FF0EA86FA0EC4C
:101E600004F09BC0E1FF9CC0E2FF00C0E6FF01C0A0
:101E7000E6FF02C0E6FF03C0E6FF050EA52782903D
:101E800057C0E1FF58C0E2FF030EE66E55C000F0F8
:101E900056C001F02DEC00F057C0E1FF58C0E2FF42
:101EA000A5C0E6FF55C000F056C001F02DEC00F0D3
:101EB0000001A46B9FC0D9FFA0C0DAFFDE50A45D73
:101EC00018E257C0E1FF58C0E2FFE66A55C000F0D3
:101ED00056C001F02DEC00F000C0A3F00001A451A9
:101EE0009D25E16E000E9E21E26E00C0E6FFA42B50
:0E1EF000E1D78280D6EC01F0FF0E006E1200EA
:101EFE00829057C0E1FF58C0E2FF030EE66E55C058
:101F0E0000F056C001F02DEC00F057C0E1FF58C0B4
:101F1E00E2FF300EE66E55C000F056C001F02DEC1B
:101F2E0000F057C0E1FF58C0E2FFE66A55C000F06E
:101F3E0056C001F02DEC00F000C0A3F08280D6EC6C
:101F4E0001F00001A3B702D0A36B60D0829057C0FE
:101F5E00E1FF58C0E2FF030EE66E55C000F056C01A
:101F6E0001F02DEC00F057C0E1FF58C0E2FF400E2B
:101F7E00E66E55C000F056C001F02DEC00F057C0D3
:101F8E00E1FF58C0E2FFE66A55C000F056C001F00E
:101F9E002DEC00F000C0A3F08280D6EC01F0000121
:101FAE00A3B703D0100EA36F31D0829057C0E1FFBC
:101FBE0058C0E2FF030EE66E55C000F056C001F0A9
:101FCE002DEC00F057C0E1FF58C0E2FF500EE66E58
:101FDE0055C000F056C001F02DEC00F057C0E1FFE7
:101FEE0058C0E2FFE66A55C000F056C001F02DEC75
:101FFE0000F000C0A3F08280D6EC01F00001A3B780
:10200E0003D0200EA36F02D0006AEFD0300EA327AC
:10201E00829057C0E1FF58C0E2FF020EE66E55C037
:10202E0000F056C001F02DEC00F057C0E1FF58C093
:10203E00E2FFA3C0E6FF55C000F056C001F02DEC44
:10204E0000F0030E0001A215006E00C0A5F057C0EF
:10205E00E1FF58C0E2FF00C0E6FF55C000F056C0D9
:10206E0001F02DEC00F08280D6EC01F00001A2B759
:10207E0003D0F70EA56F02D0FF0EA56FA351010F6F
:10208E00B36F9BC0B4F09CC0B5F09DC0B6F09EC0BF
:10209E00B7F0A5C0B8F065EC02F0A1C0A5F0000144
:1020AE00A2BD01D0A58D829057C0E1FF58C0E2FFBE
:1020BE00020EE66E55C000F056C001F02DEC00F099
:1020CE00050E0001A325006E57C0E1FF58C0E2FFC8
:1020DE0000C0E6FF55C000F056C001F02DEC00F038
:1020EE0057C0E1FF58C0E2FFA5C0E6FF55C000F0A3
:1020FE0056C001F02DEC00F08280D6EC01F0D6EC4B
:10210E0001F0829057C0E1FF58C0E2FF020EE66E6A
:10211E0055C000F056C001F02DEC00F0060E000187
:10212E00A325006E57C0E1FF58C0E2FF00C0E6FFD6
:10213E0055C000F056C001F02DEC00F00001A46B6C
:10214E00A151A45D15E2A4519F25E96E000EA021B8
:10215E00EA6E57C0E1FF58C0E2FFEECFE6FF55C072
:10216E0000F056C001F02DEC00F00001A42BE8D7D2
:10217E008280D6EC01F0D6EC01F0829027D057C0C9
:10218E00E1FF58C0E2FF810EE66E55C000F056C06A
:10219E0001F02DEC00F024D057C0E1FF58C0E2FF53
:1021AE00820EE66E55C000F056C001F02DEC00F028
:1021BE0017D057C0E1FF58C0E2FF830EE66E55C040
:1021CE0000F056C001F02DEC00F00AD00001A35132
:1021DE00300AD5E0A351400ADFE0A351500AE9E0EE
:0C21EE008280D6EC01F0FF0E006E1200A3
:1021FA009BC002F09CC003F09EC000F09FC001F09B
:10220A00010E00019E5F000E9F5B0050011009E065
:10221A0002C0E1FF03C0E2FF9DC0E6FF024A032AB3
:0C222A00EBD79BC000F09CC001F012003C
:10223600A00E0001A46F000EA56F9BC0A7F09CC066
:10224600A8F09DC0A9F09EC0AAF09FC0ABF0A40E56
:10225600AC6F000EAD6F3CEC06F000C0A2F001C002
:10226600A3F000509B25E16E01509C21E26EE66AC8
:0A227600A2C000F0A3C001F01200A6
:102280000001A16B9DC001F0010E006E015004E041
:1022900000360090FF0FFBD700C0A0F09BC0E9FF05
:1022A0009CC0EAFF0050EE14016E0152010ED8A44A
:1022B000000E006E9F51001A1AE09E51000806E2BF
:1022C00068EC0BF068EC0BF09E07F7D79BC0E9FFBA
:1022D0009CC0EAFFA051EE14016E0152010ED8A479
:1022E000000E006E9F51001A02E0FF0EA16FA1C008
:0422F00000F01200E8
:1022F4000900F5CFE6FF0006FBE10106F9E1120053
:1023040094949490828482808294D4EC05F08284A4
:10231400D4EC05F0800E0001A76FFF0EA86FDAEC75
:1023240005F09BC0A7F09CC0A8F09DC0A9F09EC07A
:10233400AAF09FC0ABF0A0C0ACF096EC0BF0600E1E
:102344000001A015A16F100EA015016E0150100A16
:10235400D8B4A185829057C0E1FF58C0E2FF020EB5
:10236400E66E55C000F056C001F02DEC00F057C0E9
:10237400E1FF58C0E2FF600EE66E55C000F056C0A3
:1023840001F02DEC00F057C0E1FF58C0E2FFA1C0FE
:10239400E6FF55C000F056C001F02DEC00F082803D
:1023A400D6EC01F0D6EC01F0829057C0E1FF58C0A2
:1023B400E2FF020EE66E55C000F056C001F02DECAF
:1023C40000F057C0E1FF58C0E2FF700EE66E55C042
:1023D40000F056C001F02DEC00F057C0E1FF58C0EA
:1023E400E2FFA1C0E6FF55C000F056C001F02DEC9D
:1023F40000F08280D6EC01F00001A76BA86BA96BFA
:10240400AA6BAB6BF70EAC6F73EC0BF0010E000113
:10241400A76FA86BA96BAA6BAB6BF70EAC6F73ECD1
:102424000BF0600E0001A015006E9F0E0010016EEF
:102434000FD0F70EA26FF70EA36F11D0FF0EA26F8D
:10244400FF0EA36F0CD0FF0EA26FF70EA36F07D081
:102454000150DF0AEEE00150BF0AF0E0F4D7A76BA9
:10246400A86BA96BAA6BAB6BA2C0ACF035EC0BF0FC
:10247400010E0001A76FA86BA96BAA6BAB6BA2C07E
:10248400ACF035EC0BF0020E0001A16FA151050870
:102494000DE3A1C0A7F0A86BA96BAA6BAB6BA3C09B
:1024A400ACF035EC0BF00001A12BF0D7A76BFF0EBD
:0824B400A86FDAEC05F012003C
:1024BC0010D0800E00019B6F1AD0C00E9B6F17D0EE
:1024CC00940E9B6F14D0D40E9B6F11D0800E9B6F0B
:1024DC000ED000019B51010AECE09B51020AEDE089
:1024EC009B51030AEDE09B51040AEDE0EFD79C05EC
:1024FC00006E9B51002600C09BF000C0B3F059EC5D
:10250C0003F080979F6B9F519D25E96E000E9E21D5
:10251C00EA6EEE520CE09F519D25E96E000E9E2155
:10252C00EA6EEECFA7F0CDEC05F09F2BECD78087B1
:02253C0012008B
:10253E00C26A151C006E0050C1160F0EC012C08E5E
:10254E009BC000F000360090003600900050C21282
:10255E00C28036EC06F0C282C2A201D0FDD7C4CF33
:10256E0001F0006A00C09CF001C09DF0C350001243
:10257E00000E011200C09CF001C09DF0C290000E32
:10258E000014026E0150800B036E000E031802E160
:10259E00000E021803E000019C6B9D6B9CC000F0C6
:0625AE009DC001F01200C7
:1025B400C69A340E556E010E566EBA0E576E000E44
:1025C400586E480E0001846F000E856FC00E866F32
:1025D400000E876F949A94969488C66A400EC76ECC
:0425E400C68A120091
:1025E800939A93989390939293949396819A8198BF
:1025F8008196819481928190D9EC01F0D9EC01F017
:10260800D9EC01F081828180818AD6EC01F0819A2F
:10261800D9EC01F0818AD6EC01F0819AD9EC01F06D
:10262800818AD6EC01F0819AD9EC01F08190818AF7
:10263800D6EC01F0819AD9EC01F0818AD6EC01F050
:10264800819A81928186818AD6EC01F0819AD9ECAF
:1026580001F081968180818AD6EC01F0819A81907F
:10266800818AD6EC01F0819AD9EC01F0818AD6EC06
:1026780001F0819A8180818AD6EC01F0819AD9ECA7
:1026880001F08190818AD6EC01F0819A818681845B
:1026980081828180818AD6EC01F0819AD9EC01F09F
:0626A80000018087120012
:1026AE0095EC15F0010E0F01386F396B3B6B3A6BE1
:1026BE00799E789E816A936AFF0E956E0001606B1B
:1026CE00956B966BF40E956FD10E606F6CDF85DF98
:1026DE00010EB36F59EC03F00C0EB36F59EC03F00F
:1026EE00010E9B6F010E9C6F270E9D6F000E9E6F4D
:1026FE00DEDE010E9B6F0A0E9C6F2C0E9D6F000E80
:10270E009E6FD5DE020E9B6F010E9C6F220E9D6F8B
:10271E00000E9E6FCCDE020E9B6F0A0E9C6F1E0E7D
:10272E009D6F000E9E6FC3DE030E9B6F080E9C6F97
:10273E00030E9D6F030E9E6F010E9F6F60C0A0F083
:10274E00DADD800EA76FFF0EA86FDAEC05F0A76B2F
:10275E00FF0EA86FFF0EA96FAA6FAB6FF70EAC6FCF
:10276E0073EC0BF0010E0001A76FFF0EA86FFF0EAA
:10277E00A96FAA6FAB6FF70EAC6F73EC0BF0040E74
:10278E000001A76F4F0EA86F2F0EA96F000EAA6F34
:10279E00000EAB6FF70EAC6F35EC0BF00001A76BB4
:1027AE00FF0EA86FDAEC05F0596A5C6A5A6A5B6A2A
:1027BE00626B636B00019B6BBBDE00C05AF001C005
:1027CE005BF001500001631902E16251001842E012
:1027DE00710E9B6F000E9C6F9D6B070E9E6F000E11
:1027EE009F6F04DD710E9B6F000E9C6F1B0E9D6F15
:1027FE002B0E9E6F000E9F6F5AC0A0F05BC0A1F013
:10280E0013DD010E9B6F050E9C6F710E9D6F000EFA
:10281E009E6F4DDE5BC000F0000E5BBEFF0E016EC4
:10282E0000C078F05AC079F0030E9B6F000E9C6FBB
:10283E00000E9D6F000E9E6F780E9F6F000EA06FA4
:10284E00030EA16F95C0A2F07FEC0FF05AC062F09C
:10285E005BC063F0640E00019B6F000E9C6F680EF0
:10286E009D6F000E9E6F810E9F6F000EA06F960ED5
:10287E00A16F000EA26F38EC0CF000C070F0675123
:10288E00000A08E16651000A05E165512F0A02E1CE
:10289E0064514F0A55E1705353E068C082F0000E48
:1028AE00836F82C083F0826B69C000F0000E016EF0
:1028BE000050821301508313710E9B6F000E9C6F9C
:1028CE009D6B070E9E6F000E9F6F90DC710E9B6FBF
:1028DE00000E9C6F160E9D6F2B0E9E6F000E9F6F3F
:1028EE0082C0A0F083C0A1F09FDC020E9B6F050E8C
:1028FE009C6F710E9D6F000E9E6FD9DD710E9B6FDA
:10290E00000E9C6F9D6B070E9E6F000E9F6F6EDC10
:10291E00710E9B6F000E9C6F250E9D6F2B0E9E6F82
:10292E00000E9F6F6AC0A0F0000EA16F7DDC020E3C
:10293E009B6F0D0E9C6F710E9D6F000E9E6FB7DD1F
:10294E00830E9B6F0F0E9C6F9D6B010E9E6F010E83
:10295E009F6F8FDC0052D8A4808580A50DD0830E8A
:10296E009B6F0F0E9C6F9D6B010E9E6F9F6B81DC9C
:10297E00005202E0592A8095830E9B6F0F0E9C6FBA
:10298E00010E9D6F010E9E6F010E9F6F72DC005245
:10299E00D8A4808180A10ED0830E9B6F0F0E9C6FEA
:1029AE00010E9D6F010E9E6F9F6B63DC005202E065
:1029BE0059068091830E9B6F0F0E9C6F020E9D6FBA
:1029CE00010E9E6F010E9F6F54DC0052D8A48083BF
:1029DE0080A30ED0830E9B6F0F0E9C6F020E9D6F09
:1029EE00010E9E6F9F6B45DC005202E0596A809388
:1029FE005C5059183AE0710E9B6F000E9C6F9D6BE8
:102A0E00070E9E6F000E9F6FFDEC10F0710E9B6F08
:102A1E00000E9C6F200E9D6F2B0E9E6F000E9F6FF3
:102A2E0059C0A0F0000EA16F1BEC11F0010E9B6FB0
:102A3E000D0E9C6F710E9D6F000E9E6F38DD59C08E
:102A4E007AF0030E9B6F000E9C6F000E9D6F000EB2
:102A5E009E6F780E9F6F000EA06F030EA16F95C034
:102A6E00A2F07FEC0FF059C05CF0020E0B6E040E5C
:102A7E000C6EBA0E0D6E0D2EFED70C2EFCD70B2E35
:082A8E00FAD7000097D6FFD72C
:102B2A0010EE15F0400E006E010E016E960EF66E56
:0E2B3A002A0EF76E000EF86E7AEC11F0120003
:012A96000F30
:082A970061005F005D005E00BC
:042A9F0043503A0066
:052AA3004144433A002C
:052AA8004144433A0027
:042AAD0043503A0058
:052AB1006E756C6C0065
:042AB600000000001C
:082ABA005F005D005E00610099
:082AC2005E0061005F005D0091
:082ACA005D005E0061005F0089
:042AD2000000000000
:102AD600303132333435363738394142434445464E
:012AE60000EF
:102AE700303132333435363738396162636465667D
:012AF70000DE
:0C2AF800010008004000000200100080F7
:0A2B040001000A006400E803102736
:082B0E0001001000000100109D
:052B16002530347500BC
:052B1B002530347500B7
:052B20002530337500B3
:052B25002530337500AE
:00000001FF
